:020000040000FA
:0608000081EF1BF0120065
:02080600743349
:0608080056EF12F0120091
:02080E00C250D6
:08081000020B01E0010E1200D1
:0608180049EF19F0120087
:02081E000200D6
:1008200080370000D5070000040000000608000023
:08083000D907000002000000DE
:08083800D9CFE6FFE1CFD9FFA3
:10084000FD0EDB50AD6EF0EC17F0E552E7CFD9FFAF
:100850001200D9CFE6FFE1CFD9FF080EE126DE6A0C
:10086000DD6A200EF36E020EF3CFDBFF030EDB6AB0
:10087000FB0EDBCF2BF0FC0EDBCF2CF02C50000A54
:10088000E8AE02D02C3405D0000ED8802B54000ED8
:100890002C545AE2040EDB6A050EDB6AFD0EDBCF38
:1008A0001DF0FE0EDBCF1EF0060E1DC0DBFF070E97
:1008B0001EC0DBFF060EDBCFE9FF070EDBCFEAFF32
:1008C000EF500BE0040EDB2A050E01E3DB2A060ED7
:1008D000DB2A070E01E3DB2AEDD7040EDBCF2BF07A
:1008E000050EDBCF2CF0FB0EDBCF2DF0FC0EDBCFAB
:1008F0002EF02C502E18E8AE02D02E3404D02D50FD
:100900002B5C2E502C5805E3FB0EDB6AFC0EDB6AD9
:1009100010D0040EDBCF2BF0050EDBCF2CF0D9501E
:10092000FB0FE96EFF0EDA20EA6E2B50EE5E2C50C4
:10093000ED5AF90EDB50020B07E0300EF36E020E9B
:10094000F3CFDBFF030EDB6AF90EDB50010B25E171
:10095000FB0EDBCF2BF0FC0EDBCF2CF02C50000A73
:10096000E8AE02D02C3405D0000ED8802B54000EF7
:100970002C5413E2020EDBCFE6FF030EDBCFE6FFC3
:100980005BDFE552E552DF2A010E01E3DB2AFB0EB5
:10099000DB06FC0E01E2DB06DBD7FD0EDBCFE9FF59
:1009A000FE0EDBCFEAFFEF501CE0FD0EDBCFE9FFD0
:1009B000FE0EDBCFEAFFEFCF2BF02C6A2BBE2C68AC
:1009C0002BC0E6FF2CC0E6FF37DFE552E552DF2AF9
:1009D000010E01E3DB2AFD0EDB2AFE0E01E3DB2A1A
:1009E000DCD7FB0EDBCF2BF0FC0EDBCF2CF02C503A
:1009F000000AE8AE02D02C3405D0000ED8802B546B
:100A0000000E2C5413E2020EDBCFE6FF030EDBCF09
:100A1000E6FF12DFE552E552DF2A010E01E3DB2A91
:100A2000FB0EDB06FC0E01E2DB06DBD7DECF2BF094
:100A3000DDCF2CF02BC0F3FF2CC0F4FF00D0D9CFBA
:100A4000E1FFE552E7CFD9FF1200D9CFE6FFE1CFB2
:100A5000D9FF0A0EE126040EDB6A050EDB6A060EDC
:100A6000DB6A070EDB6AFD0EDBCF1DF0FE0EDBCF6F
:100A70001EF0080E1DC0DBFF090E1EC0DBFF0701C4
:100A8000BE0E996F0701EF0EAD6FD950FD0FE96EE5
:100A9000FF0EDA20EA6EEE50ED101BE10701300E7A
:100AA000996F07019A6BF50EDBCFE6FFF60EDBCFF1
:100AB000E6FFF70EDBCFE6FFF80EDBCFE6FF990E81
:100AC000E66E070EE66EC5DEF56E060EE15EF550CB
:100AD00027D1D950F90FE96EFF0EDA20EA6EEE50F9
:100AE000ED102CE0D950FB0FE96EFF0EDA20EA6E14
:100AF0000A0EEE1801E1ED5021E1FD0EDBCF2BF0E7
:100B0000FE0EDBCF2CF00001800E2C1517E0010E3D
:100B1000F36E040EF3CFDBFF050EDB6A1D681E6863
:100B2000FD0EDBCF22F0FE0EDBCF23F0F8EC1AF047
:100B3000080E1BC0DBFF090E1CC0DBFFAD0E2B6EC9
:100B4000070E2C6E2B06000E2C5A2BC0DEFF2CC07D
:100B5000DDFFDECFE9FFDDCFEAFFEF6AD950080FF6
:100B6000E96EDACFEAFFEE50ED1073E0080EDBCF4E
:100B70001DF0090EDBCF1EF0FB0EDBCF22F0FC0ECA
:100B8000DBCF23F06BEC1BF0020E19C0DBFF030E72
:100B90001AC0DBFF020EDBCF2BF0030EDBCF2CF0F5
:100BA0002C50000AE8AE02D0D89004D00A0E2B5C7C
:100BB000000E2C5817E3F30EDBCF2BF0F40EDBCF37
:100BC0002CF0300E2B5E000E2C5A0A0E2B5E000EFF
:100BD0002C5AD950020FE96EDACFEAFF2B50EE26DD
:100BE0002C50ED22300EE76E020EDBCF2BF0030E01
:100BF000DBCF2CF0E7502B26000E2C22D9CFE9FFBB
:100C0000DACFEAFFEE06000EED5AEECFF3FFEDCF9E
:100C1000F4FFF3CFE9FFF4CFEAFF2BC0EFFFFB0EA9
:100C2000DBCF2BF0FC0EDBCF2CF0D950080FE96E98
:100C3000DACFEAFF2BC022F02CC023F0EECF1DF05C
:100C4000EDCF1EF06BEC1BF01DC0EEFF1EC0EDFFE4
:100C500085D7D950040FE96EDACFEAFFEE50ED10D8
:100C60002FE0D950F70FE96EFF0EDA20EA6EEE5052
:100C7000ED1015E0F50EDB50020B11E02D0EE66EC7
:100C8000E66ADADDE552E552060EDB2A070E01E3DD
:100C9000DB2AF70EDB06F80E01E2DB0611D0D9CF16
:100CA000E9FFDACFEAFFEE06000EED5AEECFF3FFD2
:100CB000EDCFF4FFF3CFE9FFF4CFEAFF2D0EEF6E97
:100CC000060EDBCF2DF0070EDBCF2EF02DC0E6FF9A
:100CD0002EC0E6FFF50EDBCFE6FFF60EDBCFE6FF1C
:100CE000F70EDBCFE6FFF80EDBCFE6FFDECFE6FF49
:100CF000DDCFE6FFAEDDF56E060EE15EF550E552A6
:100D0000E7CF2EF0E552E7CF2DF02D50F3242B6ED8
:100D10002E50F4202C6E2BC0F3FF2CC0F4FF00D01B
:100D2000D9CFE1FFE552E7CFD9FF1200D9CFE6FFD7
:100D3000E1CFD9FF2E0EE1262C0EDB6A2D0EDB6AE9
:100D4000FD0EDBCFE9FFFE0EDBCFEAFFEF5001E146
:100D50001AD3FD0EDBCFE9FFFE0EDBCFEAFFEF502B
:100D6000250801E0E1D2FD0EDB2AFE0E01E3DB2ABD
:100D70002A0EDB6A2B0EDB6AD950280FE96EDACF18
:100D8000EAFFEE6AED6AFD0EDBCFE9FFFE0EDBCF78
:100D9000EAFFEF5001E1F7D2FD0EDBCFE9FFFE0ED7
:100DA000DBCFEAFFEF50250801E1BED2FD0EDBCF1D
:100DB000E9FFFE0EDBCFEAFFEF502D080CE1FD0E40
:100DC000DB2AFE0E01E3DB2A010EF36E2A0EF3CFBF
:100DD000DBFF2B0EDB6AFD0EDBCFE9FFFE0EDBCF68
:100DE000EAFFEF5030080DE1FD0EDB2AFE0E01E3B5
:100DF000DB2AD9502A0FE96EDACFEAFFEE82ED52F4
:100E0000EAD7FD0EDBCFE9FFFE0EDBCFEAFFEFCF27
:100E10002BF0300E2B5C31E3FD0EDBCFE9FFFE0E35
:100E2000DBCFEAFFEF50390828E3D950280FE96EED
:100E3000DACFEAFF0A0EEC02F3CFEDFF0A0EEF0263
:100E4000F3CFEEFFF450ED26FD0EDBCFE9FFFE0EF3
:100E5000DBCFEAFFEF50D00F2B6E2C6AD950280F52
:100E6000E96EDACFEAFF2B50EE262C50ED22FD0E74
:100E7000DB2AFE0E01E3DB2AC4D7FD0EDBCFE9FF40
:100E8000FE0EDBCFEAFFEF50730861E1D950FB0F94
:100E9000E96EFF0EDA20EA6EEECFF3FFEDCFF4FF3E
:100EA000020EEE5E000EEF5AF3CFE9FFF4CFEAFF39
:100EB000EECF2BF0EFCF2CF02D6A2BC0E6FF2CC02D
:100EC000E6FF2DC0E6FFD9CFE6FFDACFE6FF25EC3F
:100ED0001BF0F56E050EE15EF550DF5015E1D9C748
:100EE0002BF0DAC72CF02D6A2BC0E6FF2CC0E6FFF2
:100EF0002DC0E6FFD9CFE6FFDACFE6FF25EC1BF0E9
:100F0000F56E050EE15EF5502A0EDBCFE6FF2B0EE7
:100F1000DBCFE6FF280EDBCFE6FF290EDBCFE6FFB7
:100F2000D9CFE6FFDACFE6FF94DCF56E060EE15E80
:100F3000F550F3CF2BF0F4CF2CF0D9502C0FE96EF5
:100F4000DACFEAFF2B50EE262C50ED2216D2FD0E02
:100F5000DBCFE9FFFE0EDBCFEAFFEF5064083EE196
:100F6000610EE66EE66A2A0EDBCFE6FF2B0EDBCFC4
:100F7000E6FF280EDBCFE6FF290EDBCFE6FF010EF2
:100F8000E66EE66A0A0EE66EE66AD950FB0FE96E77
:100F9000FF0EDA20EA6EEECFF3FFEDCFF4FF020E84
:100FA000EE5E000EEF5AF3CFE9FFF4CFEAFFEECF8B
:100FB000E6FFEFCFE6FF49DDF56E0C0EE15EF55082
:100FC000F3CF2BF0F4CF2CF0D9502C0FE96EDACF01
:100FD000EAFF2B50EE262C50ED22CFD1FD0EDBCFB9
:100FE000E9FFFE0EDBCFEAFFEF5078083EE1610E2D
:100FF000E66EE66A2A0EDBCFE6FF2B0EDBCFE6FFBE
:10100000280EDBCFE6FF290EDBCFE6FF000EE66EF3
:10101000E66A100EE66EE66AD950FB0FE96EFF0E27
:10102000DA20EA6EEECFF3FFEDCFF4FF020EEE5EB4
:10103000000EEF5AF3CFE9FFF4CFEAFFEECFE6FF61
:10104000EFCFE6FF02DDF56E0C0EE15EF550F3CF5B
:101050002BF0F4CF2CF0D9502C0FE96EDACFEAFF49
:101060002B50EE262C50ED2288D1FD0EDBCFE9FF70
:10107000FE0EDBCFEAFFEF5058083EE1410EE66E70
:10108000E66A2A0EDBCFE6FF2B0EDBCFE6FF280E4B
:10109000DBCFE6FF290EDBCFE6FF000EE66EE66A49
:1010A000100EE66EE66AD950FB0FE96EFF0EDA20ED
:1010B000EA6EEECFF3FFEDCFF4FF020EEE5E000E10
:1010C000EF5AF3CFE9FFF4CFEAFFEECFE6FFEFCF21
:1010D000E6FFBBDCF56E0C0EE15EF550F3CF2BF0B6
:1010E000F4CF2CF0D9502C0FE96EDACFEAFF2B5059
:1010F000EE262C50ED2241D1FD0EDBCFE9FFFE0E96
:10110000DBCFEAFFEF5075083EE1610EE66EE66A5E
:101110002A0EDBCFE6FF2B0EDBCFE6FF280EDBCF60
:10112000E6FF290EDBCFE6FF000EE66EE66A0A0E4A
:10113000E66EE66AD950FB0FE96EFF0EDA20EA6E22
:10114000EECFF3FFEDCFF4FF020EEE5E000EEF5A8E
:10115000F3CFE9FFF4CFEAFFEECFE6FFEFCFE6FFF4
:1011600074DCF56E0C0EE15EF550F3CF2BF0F4CF8E
:101170002CF0D9502C0FE96EDACFEAFF2B50EE2677
:101180002C50ED22FAD0FD0EDBCFE9FFFE0EDBCFB7
:10119000EAFFEF506C0801E081D0610EE66EE66A6E
:1011A0002A0EDBCFE6FF2B0EDBCFE6FF280EDBCFD0
:1011B000E6FF290EDBCFE6FF000EE66EE66A100EB4
:1011C000E66EE66AD950FB0FE96EFF0EDA20EA6E92
:1011D000EECFF3FFEDCFF4FF020EEE5E000EEF5AFE
:1011E000F3CFE9FFF4CFEAFFEECFE6FFEFCFE6FF64
:1011F0002CDCF56E0C0EE15EF550F3CF2BF0F4CF46
:101200002CF0D9502C0FE96EDACFEAFF2B50EE26E6
:101210002C50ED22610EE66EE66A2A0EDBCFE6FF69
:101220002B0EDBCFE6FF280EDBCFE6FF290EDBCF50
:10123000E6FF000EE66EE66A100EE66EE66AD9502C
:10124000FB0FE96EFF0EDA20EA6EEECFF3FFEDCF73
:10125000F4FF020EEE5E000EEF5AF3CFE9FFF4CF7B
:10126000EAFFEECFE6FFEFCFE6FF25EC05F0F56EE7
:101270000C0EE15EF550F3CF2BF0F4CF2CF0D950EB
:101280002C0FE96EDACFEAFF2B50EE262C50ED2220
:10129000FD0EDB2AFE0E01E3DB2A6FD0FD0EDBCF55
:1012A000E9FFFE0EDBCFEAFFEF5062083CE1610E82
:1012B000E66EE66A020EE66EE66A280EDBCFE6FF11
:1012C000290EDBCFE6FF000EE66EE66A020EE66E42
:1012D000E66AD950FB0FE96EFF0EDA20EA6EEECF18
:1012E000F3FFEDCFF4FF020EEE5E000EEF5AF3CFE8
:1012F000E9FFF4CFEAFFEECFE6FFEFCFE6FF25EC04
:1013000005F0F56E0C0EE15EF550F3CF2BF0F4CF47
:101310002CF0D9502C0FE96EDACFEAFF2B50EE26D5
:101320002C50ED222AD029D0FD0EDBCFE9FFFE0E96
:10133000DBCFEAFFEF500A0808E1FD0EDBCFE9FF43
:10134000FE0EDBCFEAFF0D0EEF6EFD0EDBCFE9FFE9
:10135000FE0EDBCFEAFFEFCF2BF02C6A2BBE2C6802
:101360002BC0E6FF2CC0E6FF1CEC04F0E552E55272
:101370002C0EDB2A2D0E01E3DB2AFD0EDB2AFE0EEE
:1013800001E3DB2ADDD42C0EDBCF2BF02D0EDBCFDF
:101390002CF02BC0F3FF2CC0F4FF00D0D9CFE1FF1D
:1013A000E552E7CFD9FF1200D9CFE6FFE1CFD9FF51
:1013B000020EE126D950FD0F2B6EFF0EDA202C6EA7
:1013C0002BC0DEFF2CC0DDFFFD0EDBCF2BF0FE0EB1
:1013D000DBCF2CF02D6A2BC0E6FF2CC0E6FF2DC022
:1013E000E6FF000EE66E070EE66E25EC1BF0F56ECE
:1013F000050EE15EF550D9CFE9FFDACFEAFF020E24
:10140000EE5E000EEF5ADECFE6FFDDCFE6FF000E08
:10141000E66E070EE66E8ADCE552E552E552E552CD
:1014200000D0D9CFE1FFE552E7CFD9FF1200D9CFE5
:10143000E6FFE1CFD9FF610EE66EE66A020EE66EC8
:10144000E66A040EE66EE66A010EE66EE66A0A0ECB
:10145000E66EE66AFD0EDBCFE6FFFE0EDBCFE6FFB3
:1014600025EC05F0F56E0C0EE15EF550D950FB0F42
:10147000E96EFF0EDA20EA6EEE50ED1007E00D0E79
:10148000E66EE66A1CEC04F0E552E552E552E7CF61
:10149000D9FF1200D9CFE6FFE1CFD9FF610EE66E8A
:1014A000E66A020EE66EE66A030EE66EE66A010E74
:1014B000E66EE66A0A0EE66EE66AFE0EDBCFE6FF31
:1014C000E66A25EC05F0F56E0C0EE15EF550D9509C
:1014D000FC0FE96EFF0EDA20EA6EEE50ED1007E029
:1014E0000D0EE66EE66A1CEC04F0E552E552E5529C
:1014F000E7CFD9FF1200D9CFE6FFE1CFD9FF610EC8
:10150000E66EE66A020EE66EE66A100EE66EE66AC1
:10151000000EE66EE66A020EE66EE66AFD0EDBCFB0
:10152000E6FFFE0EDBCFE6FF25EC05F0F56E0C0EB8
:10153000E15EF550D950FB0FE96EFF0EDA20EA6E3E
:10154000EE50ED1007E00D0EE66EE66A1CEC04F0BE
:10155000E552E552E552E7CFD9FF1200D9CFE6FFB9
:10156000E1CFD9FF610EE66EE66A020EE66EE66A2C
:10157000080EE66EE66A000EE66EE66A020EE66E9B
:10158000E66AFE0EDBCFE6FFE66A25EC05F0F56EB7
:101590000C0EE15EF550D950FC0FE96EFF0EDA201B
:1015A000EA6EEE50ED1007E00D0EE66EE66A1CECFA
:1015B00004F0E552E552E552E7CFD9FF1200D9CF4A
:1015C000E6FFE1CFD9FF610EE66EE66A000EE66E39
:1015D000E66A020EE66EE66A000EE66EE66A100E37
:1015E000E66EE66AFD0EDBCFE6FFFE0EDBCFE6FF22
:1015F00025EC05F0F56E0C0EE15EF550D950FB0FB1
:10160000E96EFF0EDA20EA6EEE50ED1007E00D0EE7
:10161000E66EE66A1CEC04F0E552E552E552E7CFCF
:10162000D9FF1200D9CFE6FFE1CFD9FF610EE66EF8
:10163000E66A020EE66EE66A020EE66EE66A000EE4
:10164000E66EE66A100EE66EE66AFE0EDBCFE6FF99
:10165000E66A25EC05F0F56E0C0EE15EF550D9500A
:10166000FC0FE96EFF0EDA20EA6EEE50ED1007E097
:101670000D0EE66EE66A1CEC04F0E552E552E5520A
:10168000E7CFD9FF1200D9CFE6FFE1CFD9FFFD0E9A
:10169000DBCF2BF0FE0EDBCF2CF02D6A2BC0E6FF4C
:1016A0002CC0E6FF2DC0E6FF000EE66E070EE66ECC
:1016B00025EC1BF0F56E050EE15EF5500701AF6BF2
:1016C000B06B000EE66E070EE66E3EEC1BF0E552C8
:1016D000E552F3CF2BF0F4CF2CF007012B50AF5D88
:1016E0002C50B0591AE2000E0701AF25E96E070E23
:1016F0000701B021EA6EEFCF2BF02C6A2BBE2C68CD
:101700002BC0E6FF2CC0E6FF1CEC04F0E552E552CE
:101710000701AF2B000EB023D4D7010EE66EE66AA8
:10172000FB0EDBCFE6FFFC0EDBCFE6FF48DFE5522A
:10173000E552E552E552E552E7CFD9FF1200D9CF85
:10174000E6FFE1CFD9FFFD0EDBCF2BF0FE0EDBCFA6
:101750002CF02D6A2BC0E6FF2CC0E6FF2DC0E6FF63
:10176000000EE66E070EE66E25EC1BF0F56E050E1C
:10177000E15EF5500701AF6BB06B000EE66E070E31
:10178000E66E3EEC1BF0E552E552F3CF2BF0F4CFC2
:101790002CF007012B50AF5D2C50B0591AE2000E0F
:1017A0000701AF25E96E070E0701B021EA6EEFCF02
:1017B0002BF02C6A2BBE2C682BC0E6FF2CC0E6FF5A
:1017C0001CEC04F0E552E5520701AF2B000EB023EC
:1017D000D4D7010EE66EE66AFB0EDBCFE6FFFC0E09
:1017E000DBCFE6FF88DEE552E552E552E552E552F1
:1017F000E7CFD9FF1200D9CFE6FFE1CFD9FFFD0E29
:10180000DBCF2BF0FE0EDBCF2CF02D6A2BC0E6FFDA
:101810002CC0E6FF2DC0E6FF000EE66E070EE66E5A
:1018200025EC1BF0F56E050EE15EF5500701AF6B80
:10183000B06B000EE66E070EE66E3EEC1BF0E55256
:10184000E552F3CF2BF0F4CF2CF007012B50AF5D16
:101850002C50B0591AE2000E0701AF25E96E070EB1
:101860000701B021EA6EEFCF2BF02C6A2BBE2C685B
:101870002BC0E6FF2CC0E6FF1CEC04F0E552E5525D
:101880000701AF2B000EB023D4D7E552E7CFD9FF25
:02189000120044
:0E189200D9CFE6FFE1CFD9FFFE0EDB5011E10A
:1018A000FC0EDBCFE9FFFD0EDBCFEAFFEF507F0838
:1018B00008E2FC0EDBCFE9FFFD0EDBCFEAFF7F0E77
:1018C000EF6EE552E7CFD9FF1200D9CFE6FFE1CFA7
:1018D000D9FFFE0EDB5013E1FC0EDBCFE9FFFD0E5E
:1018E000DBCFEAFFEFCF2BF07F0E2B5C08E2FC0E84
:1018F000DBCFE9FFFD0EDBCFEAFF7F0EEF6EE55297
:10190000E7CFD9FF1200D9CFE6FFE1CFD9FFFD0E17
:10191000DBCF2BF0FE0EDBCF2CF02C50070AE8AE0D
:1019200002D0D89004D0D00E2B5C070E2C5806E2C3
:101930000701D00EBB6F070EBC6F1ED0FD0EDBCFB4
:101940002BF0FE0EDBCF2CF02C50080AE8AE02D0B4
:101950002C3405D0CE0ED8802B54080E2C5406E221
:101960000701CE0EBB6F080EBC6F06D0FD0EDBCF9D
:10197000BBF7FE0EDBCFBCF7BBC72BF0BCC72CF010
:10198000D00E2B5E070E2C5A2B5000D0E552E7CF1D
:10199000D9FF1200D9CFE6FFE1CFD9FF07016E6969
:1019A000D950FD0FE96EFF0EDA20EA6EEE50ED1011
:1019B00002E107016E91D950FB0FE96EFF0EDA20AC
:1019C000EA6EEE50ED1002E107016E93D950F90F67
:1019D000E96EFF0EDA20EA6EEE50ED1002E107012B
:1019E0006E95D950F70FE96EFF0EDA20EA6EEE50D1
:1019F000ED1002E107016E97D950F50FE96EFF0E69
:101A0000DA20EA6EEE50ED1002E107016E99D9502E
:101A1000F30FE96EFF0EDA20EA6EEE50ED1002E1F0
:101A200007016E9BD950F10FE96EFF0EDA20EA6EC6
:101A3000EE50ED1002E107016E9DD950EF0FE96EF7
:101A4000FF0EDA20EA6EEE50ED1002E107016E9F04
:101A5000E552E7CFD9FF1200978497829780928A48
:101A60009286928492829280998E998C998A998892
:101A7000978C978A9788978607017F0E636F63C755
:101A800062F763C761F763C760F763C75FF763C750
:101A90005EF763C75DF763C75CF7010EE66EE66A43
:101AA000010EE66EE66A010EE66EE66A010EE66E6D
:101AB000E66A010EE66EE66A010EE66EE66A010E61
:101AC000E66EE66A010EE66EE66A64DFF56E100EFB
:101AD000E15EF550000EE66EE66A000EE66EE66A1E
:101AE000000EE66EE66A000EE66EE66AC1EC13F0E2
:101AF000F56E080EE15EF550F0EC18F00701B26BE0
:101B00000701B86B580EE66E070EE66E7EEC13F01A
:101B1000E552E552F8EC12F0070198A1FDD7780ED6
:101B2000E66E070EE66E5CEC13F0E552E552010E30
:101B3000E66EE66A07019751E66EE66A0A0EE66E01
:101B4000340EE66ED4EC09F0F56E060EE15EF5504B
:101B50001200D9CFE6FFE1CFD9FF020EE126DE6AFF
:101B6000DD6A80B002D0010EDF1280B202D0020E18
:101B7000DF1280B402D0040EDF1280B602D0080E4D
:101B8000DF1280BA02D0100EDF1285B002D0200E14
:101B9000DF1285B202D0400EDF1285B402D0800E73
:101BA000DF1285B606D0D9CFE9FFDACFEAFFEE52D1
:101BB000ED8085B806D0D9CFE9FFDACFEAFFEE5243
:101BC000ED8285BA06D0D9CFE9FFDACFEAFFEE522F
:101BD000ED8485BC06D0D9CFE9FFDACFEAFFEE521B
:101BE000ED8687B806D0D9CFE9FFDACFEAFFEE520B
:101BF000ED8887BA06D0D9CFE9FFDACFEAFFEE52F7
:101C0000ED8A87BC06D0D9CFE9FFDACFEAFFEE52E2
:101C1000ED8C87BE06D0D9CFE9FFDACFEAFFEE52CE
:101C2000ED8EDECFE6FFDDCFE6FFFC0EE66E330E77
:101C3000E66ED4EC09F0E552E552E552E552D9CF13
:101C4000E1FFE552E7CFD9FF1200D9CFE6FFE1CFA0
:101C5000D9FFFE0EDB507F0F0701626F07015D6F3A
:101C600007017F0E636F63C75EF7E552E7CFD9FFC9
:101C70001200D9CFE6FFE1CFD9FFFE0EDB502B6E6D
:101C80002C6A800ED8802B56000E2C562BC063F782
:101C90002BC05EF707017F0E626F62C75DF7E552EA
:101CA000E7CFD9FF1200D9CFE6FFE1CFD9FFFE0E73
:101CB000DB507F0F0701626F07015D6FFE0EDB5087
:101CC0002B6E2C6A800ED8802B56000E2C562BC003
:101CD00063F72BC05EF7E552E7CFD9FF1200D9CFEB
:101CE000E6FFE1CFD9FFFE0EDB502B6E2C6A800E93
:101CF000D8802B56000E2C562BC062F72BC05DF7F8
:101D0000FE0EDB507F0F0701636F07015E6FE55228
:101D1000E7CFD9FF120007016C83120007016C6B3B
:101D20000701B86B12000701B85119E10701A20EB3
:101D3000B96F0701010EB86F0701B16B07017F0E84
:101D4000636F63C762F763C761F763C760F763C711
:101D50005FF763C75EF763C75DF763C75CF70701AB
:101D6000B95152E1D8DF0701B151010A3AE0010A45
:101D700001E048D085BA13D007011B0EBA6F0701E6
:101D8000010EB16FF60EE66E330EE66ED4EC09F07E
:101D9000E552E552500EE66E58DFE55234D085BC70
:101DA00013D007011B0EBA6F0701010EB16FEF0EC2
:101DB000E66E330EE66ED4EC09F0E552E552500EB5
:101DC000E66E57DFE5521FD0780EE66E88DFE552EB
:101DD000E60EE66E330EE66ED4EC09F0E552E552FF
:101DE00012D00701BA5103E10701B16B0AD0DA0E34
:101DF000E66E330EE66ED4EC09F0E552E5520701CB
:101E0000BA0701D000D002D00701B9071200780E3E
:101E1000E66E070EE66E5CEC13F0E552E55281BA11
:101E20000AD097DE580EE66E070EE66E7EEC13F0D3
:101E3000E552E55281D087B802D075DF05D00701A1
:101E4000B85101E06BDFFAD981BC2ED00701635194
:101E5000E66EE66A07016251E66EE66A07016151C5
:101E6000E66EE66A07016051E66EE66A07015F51B9
:101E7000E66EE66A07015E51E66EE66A07015D51AD
:101E8000E66EE66A07015C51E66EE66A07017A5182
:101E9000E66EE66AB30EE66E330EE66ED4EC09F03B
:101EA000F56E140EE15EF55081BE3ED007018951FA
:101EB000E66EE66A07018851E66EE66A0701875119
:101EC000E66EE66A07018651E66EE66A070185510D
:101ED000E66EE66A07018451E66EE66A0701835101
:101EE000E66EE66A07018251E66EE66A07018151F5
:101EF000E66EE66A07018051E66EE66A07017F51E9
:101F0000E66EE66A07017E51E66EE66A07017A51DF
:101F1000E66EE66A7B0EE66E330EE66ED4EC09F0F2
:101F2000F56E1C0EE15EF550580EE66E070EE66E7D
:101F30007EEC13F0E552E552120007017F0E636F4D
:101F400063C762F763C760F763C75FF763C75EF78E
:101F500063C75DF763C75CF70701B52B0701B55190
:101F6000070804E20701B56B0701B7710701B75114
:101F700004E00701280E616F03D00701A70E616F0F
:101F8000120007017F0E606F640E0701825D03E29D
:101F90000701606912D0070182512B6E2C6A2C5008
:101FA000000AE8AE02D02C3405D09A0ED8802B540B
:101FB000000E2C5402E20701606B07017F0E616F77
:101FC000640E0701835D03E20701616912D0070116
:101FD00083512B6E2C6A2C50000AE8AE02D02C34B0
:101FE00005D09A0ED8802B54000E2C5402E2070123
:101FF000616B120007017F0E606F640E0701885D40
:1020000003E20701606912D0070188512B6E2C6A28
:102010002C50000AE8AE02D02C3405D09A0ED8809D
:102020002B54000E2C5402E20701606B07017F0E57
:10203000616F640E0701895D03E20701616912D0D7
:10204000070189512B6E2C6A2C50000AE8AE02D091
:102050002C3405D09A0ED8802B54000E2C5402E25A
:102060000701616B12007EC763F77EC75CF77FC70D
:1020700062F77FC75DF785C75EF7070186512B6E54
:102080002C6AFF0ED8802B56000E2C562BC05FF703
:10209000120085C75CF77FC762F77FC75DF707014E
:1020A00080512B6E2C6AFF0ED8802B56000E2C56BA
:1020B0002BC063F72BC05EF7070186512B6E2C6A8D
:1020C000FF0ED8802B56000E2C562BC05FF7120047
:1020D00087BC03D0DEDF8EDF75D087BE03D0C3DFC1
:1020E00089DF70D07EC75CF77FC75DF7070180513D
:1020F0002B6E2C6AFF0ED8802B56000E2C562BC050
:102100005EF707017F0E5F6F640E0701825D03E2D9
:1021100007015F6912D0070182512B6E2C6A2C5087
:10212000000AE8AE02D02C3405D09A0ED8802B5489
:10213000000E2C5402E207015F6B85C760F70701B0
:1021400086512B6E2C6AFF0ED8802B56000E2C5613
:102150002BC061F707017F0E626F640E0701885D77
:1021600003E20701626912D0070188512B6E2C6AC5
:102170002C50000AE8AE02D02C3405D09A0ED8803C
:102180002B54000E2C5402E20701626B07017F0EF4
:10219000636F640E0701895D03E20701636912D072
:1021A000070189512B6E2C6A2C50000AE8AE02D030
:1021B0002C3405D09A0ED8802B54000E2C5402E2F9
:1021C0000701636B120087BE17D07EC763F77EC717
:1021D0005CF77FC762F77FC75DF7070180512B6E01
:1021E0002C6AFF0ED8802B56000E2C562BC05EF7A3
:1021F00081C75FF7C6DE21D07EC75CF77FC75DF77A
:10220000070180512B6E2C6AFF0ED8802B56000ED2
:102210002C562BC05EF781C75FF7B3DE87BC05D0B5
:102220005DC762F75EC763F708D00701601D07014D
:10223000626F0701611D0701636F120007017A5188
:10224000030A28E0010A18E0030A14E0010A01E089
:1022500023D07EC75CF77FC75DF780C75EF781C775
:102260005FF782C760F783C761F784C762F785C7E6
:1022700063F713D0A8DF11D084C77EF785C77FF737
:1022800086C780F787C781F788C782F789C783F732
:102290009ADF03D01DDF01D000D087BA56D00701E6
:1022A0007E512B6E2C6AFF0ED8802B56000E2C56BA
:1022B0002BC0BDF70701BD512E6AD00F2D6E070E42
:1022C0002E2207017F5100012D242B6F000E2E209E
:1022D0002C6F7F0E2B5E000E2C5A2BC0E6FF2CC0FD
:1022E000E6FF83EC0CF0E552E55207015C6F070155
:1022F0007F512E6AD00F2D6E070E2E220701BD5181
:102300002F6E306A2F502D5C2B6E30502E582C6E55
:102310007F0E2B26000E2C222BC0E6FF2CC0E6FFE2
:1023200083EC0CF0E552E5520701626F07015D6F27
:1023300007015C512B6E2C6AFF0ED8802B56000EC5
:102340002C562BC063F72BC05CF78550080B03E0BD
:102350008550100B03E10701B35103E00701B251AF
:102360002DE0D9DC0701A20EB36F0701B2511AE1CB
:1023700007017F0E636F63C762F763C761F763C7C7
:1023800060F763C75FF763C75EF763C75DF763C74F
:102390005CF707016C0EB46F0701010EB26F070105
:1023A000B56B02D00701B407C8DD0701B45105E1E0
:1023B0000701B26B07017F0E616F0BD00701B351AC
:1023C000000802E20701B3070701B26B0701B76B10
:1023D000A5DC5F0EE66E070EE66E8050010BE66E22
:1023E00049EC0CF0E552E552E5525F0EE66E070E41
:1023F000E66E8050020B01E0010EE66E65EC0CF01B
:10240000E552E552E552600EE66E070EE66E80502C
:10241000040B01E0010EE66E49EC0CF0E552E552CA
:10242000E552600EE66E070EE66E8050080B01E086
:10243000010EE66E65EC0CF0E552E552E552610ED8
:10244000E66E070EE66E8050200B01E0010EE66E90
:1024500049EC0CF0E552E552E552610EE66E070ECE
:10246000E66E8550010BE66E65EC0CF0E552E55228
:10247000E552620EE66E070EE66E8550020B01E035
:10248000010EE66E49EC0CF0E552E552E552620EA3
:10249000E66E070EE66E8550040B01E0010EE66E57
:0C24A00065EC0CF0E552E552E55212002C
:0424AC00DACFE4FFA0
:1024B000E2CFDAFFE9CFE4FFEACFE4FFE652F2A28F
:1024C00002D09BD802D09EB6CBD8E552E5CFEAFF2A
:1024D000E5CFE9FFE5CFDAFF1100E66A010EE66E0F
:1024E000050EE66E62EC1AF0E552E552E552120076
:1024F000070EB46E000E886E876E866E856E846ED3
:10250000836E826E816E806E000E916E906E8F6E05
:102510008E6E8D6E8C6E8B6E8A6E896E92689368ED
:10252000BF0E946E956A700E966E9F0E976EE40EB7
:10253000986E0F0E996E9A680F0EC16E070EC06EE0
:10254000F19EB0989C8EA26A9F6AA06A9D6AA36A57
:10255000A56AC3DF9F86D08E9E969D869382F06A81
:10256000F288F09EF098F192F09AF16AF28CF28E75
:102570001200D9CFE6FFE1CFD9FFE652B9DF07015C
:1025800098970701989907015C0EC96F070ECA6FEB
:10259000DF6A100EDF5C0BE2DF500701EA6AC92533
:1025A000E96ECA51EA227F0EEF6EDF2AF2D70701E9
:1025B000756B0701010E766F0701C90E776F070172
:1025C0009885580EE66E070EE66E98D8E552E552ED
:1025D00007019893580EE66E070EE66E8FD8E55207
:1025E000E55207019893E552E552E7CFD9FF120073
:1025F00082828088949292981200F2920701200EB3
:10260000C56F9F86070198A906D00701E00EC26F2B
:10261000000EC36F05D00701C00EC26F000EC36F5E
:10262000070198B102D007019879070198A706D051
:102630000701800EC06F000EC16F05D00701A00E0C
:10264000C06F000EC16FC9CFC6F70701C0C7E9FF51
:10265000C1C7EAFFC02B000EC123EF50C96E1200A4
:102660009E96C9CFC6F70701C551000823E20701AE
:10267000C2C7E9FFC3C7EAFFC22B000EC323C6C708
:10268000EFFF0701C0C7E9FFC1C7EAFFC02B000E7B
:10269000C123EFCFC6F7C6C7C9FF0701C5070701AA
:1026A000C55107E10701020E766F070198930701F4
:1026B000988101D0C96A1200D9CFE6FFE1CFD9FFD6
:1026C000070198A117D0FD0EDBCFE6FFFE0EDBCF92
:1026D000E6FFD2EC16F0E552E5529D96070198917F
:1026E0009D860F0E0001165D05E06EC7E6FF1CEC2F
:1026F00016F0E552E552E7CFD9FF1200D9CFE6FF39
:10270000E1CFD9FF070198B333D0FD0EDBCFE9FF4E
:10271000FE0EDBCFEAFF1E0EE926000EEA22EF5086
:10272000020809E1FD0EDBCFE6FFFE0EDBCFE6FF80
:102730006ED8E552E552FD0EDBCFE9FFFE0EDBCF92
:10274000EAFF150EE926000EEA22EF9EFD0EDBCF12
:10275000E6FFFE0EDBCFE6FF40EC16F0E552E55259
:102760009D9607019877070198839D860701752B31
:10277000E552E7CFD9FF12009D96070198919D86FB
:102780001200D9CFE6FFE1CFD9FF0001166BD95077
:10279000FD0FE96EFF0EDA20EA6E010EEE1801E180
:1027A000ED5003E10001168101D0BA6AD950FB0F48
:1027B000E96EFF0EDA20EA6E010EEE1801E1ED502F
:1027C00003E10001168301D0B76AD950F90FE96E11
:1027D000FF0EDA20EA6E010EEE1801E1ED5003E182
:1027E0000001168501D0736AD950F70FE96EFF0E0C
:1027F000DA20EA6E010EEE1801E1ED5003E100016E
:10280000168701D0706AE552E7CFD9FF1200D9CF01
:10281000E6FFE1CFD9FFFD0EDBCFE9FFFE0EDBCFF8
:10282000EAFF1C0EE926000EEA22EF6AFD0EDBCF5E
:10283000E9FFFE0EDBCFEAFF170EE926000EEA22C3
:10284000EF6AC6AE0ED0C69EFD0EDBCFE9FFFE0ED0
:10285000DBCFEAFF170EE926000EEA22010EEF6E2B
:1028600022D0F150800B10E0F250080B0DE0FD0E6D
:10287000DBCFE9FFFE0EDBCFEAFF170EE926000EE5
:10288000EA22020EEF6E0FD0F0A60DD0909EFD0E44
:10289000DBCFE9FFFE0EDBCFEAFF170EE926000EC5
:1028A000EA22030EEF6E250EC614250819E0FD0E70
:1028B000DBCFE9FFFE0EDBCFEAFF1C0EE926000EA0
:1028C000EA22010EEF6EFD0EDBCFE9FFFE0EDBCF3D
:1028D000EAFF170EE926000EEA22C6CFEFFF80D1ED
:1028E000C55019E0FD0EDBCFE9FFFE0EDBCFEAFF9E
:1028F0001C0EE926000EEA22020EEF6EFD0EDBCF63
:10290000E9FFFE0EDBCFEAFF170EE926000EEA22F2
:10291000C5CFEFFF65D1D0BE19D0FD0EDBCFE9FFEB
:10292000FE0EDBCFEAFF1C0EE926000EEA22030EA4
:10293000EF6EFD0EDBCFE9FFFE0EDBCFEAFF170ED9
:10294000E926000EEA22D0CFEFFF4AD19DB619D07A
:10295000FD0EDBCFE9FFFE0EDBCFEAFF1C0EE92602
:10296000000EEA22040EEF6EFD0EDBCFE9FFFE0E35
:10297000DBCFEAFF170EE926000EEA229DCFEFFF1C
:102980002FD19C5019E0FD0EDBCFE9FFFE0EDBCF0F
:10299000EAFF1C0EE926000EEA22050EEF6EFD0E80
:1029A000DBCFE9FFFE0EDBCFEAFF170EE926000EB4
:1029B000EA229CCFEFFF14D1080E9F5C19E0FD0EB8
:1029C000DBCFE9FFFE0EDBCFEAFF1C0EE926000E8F
:1029D000EA22060EEF6EFD0EDBCFE9FFFE0EDBCF27
:1029E000EAFF170EE926000EEA229FCFEFFFF8D08C
:1029F000A25019E0FD0EDBCFE9FFFE0EDBCFEAFFB0
:102A00001C0EE926000EEA22070EEF6EFD0EDBCF4C
:102A1000E9FFFE0EDBCFEAFF170EE926000EEA22E1
:102A2000A2CFEFFFDDD0A55019E0FD0EDBCFE9FF0F
:102A3000FE0EDBCFEAFF1C0EE926000EEA22080E8E
:102A4000EF6EFD0EDBCFE9FFFE0EDBCFEAFF170EC8
:102A5000E926000EEA22A5CFEFFFC2D0100EF21435
:102A6000100819E0FD0EDBCFE9FFFE0EDBCFEAFF19
:102A70001C0EE926000EEA22090EEF6EFD0EDBCFDA
:102A8000E9FFFE0EDBCFEAFF170EE926000EEA2271
:102A9000F2CFEFFFA5D0470EF11419E0FD0EDBCF0A
:102AA000E9FFFE0EDBCFEAFF1C0EE926000EEA224C
:102AB0000A0EEF6EFD0EDBCFE9FFFE0EDBCFEAFF65
:102AC000170EE926000EEA22F1CFEFFF89D0C00EE3
:102AD000F01419E0FD0EDBCFE9FFFE0EDBCFEAFFBD
:102AE0001C0EE926000EEA220B0EEF6EFD0EDBCF68
:102AF000E9FFFE0EDBCFEAFF170EE926000EEA2201
:102B0000F0CFEFFF6DD092A819D0FD0EDBCFE9FF1B
:102B1000FE0EDBCFEAFF1C0EE926000EEA220C0EA9
:102B2000EF6EFD0EDBCFE9FFFE0EDBCFEAFF170EE7
:102B3000E926000EEA2292CFEFFF52D093B019D0CF
:102B4000FD0EDBCFE9FFFE0EDBCFEAFF1C0EE92610
:102B5000000EEA220D0EEF6EFD0EDBCFE9FFFE0E3A
:102B6000DBCFEAFF170EE926000EEA2293CFEFFF34
:102B700037D03E0E94141C0819E0FD0EDBCFE9FFA0
:102B8000FE0EDBCFEAFF1C0EE926000EEA220E0E37
:102B9000EF6EFD0EDBCFE9FFFE0EDBCFEAFF170E77
:102BA000E926000EEA2294CFEFFF1AD097BE18D084
:102BB000FD0EDBCFE9FFFE0EDBCFEAFF1C0EE926A0
:102BC000000EEA220F0EEF6EFD0EDBCFE9FFFE0EC8
:102BD000DBCFEAFF170EE926000EEA2297CFEFFFC0
:082BE000E552E7CFD9FF120016
:082BE800000EE96EEA6E040024
:102BF00001EC16F0EA2A080EEA5CD8A4F7EF15F00B
:102C00001200EF6AE93E01EF16F01200FF0EE3CF6B
:102C100009F009380F0B060FD8B2070F2A0FAD6E57
:102C2000F0EC17F009500F0B060FD8B2070F2A0F60
:102C3000AD6EF0EC17F0000CFF0EE3CF15F015B001
:102C4000968E15A0969E15B2988015A2989015B4F0
:102C5000988615A4989615B6988815A6989815B8CC
:102C6000968015A8969015BA968215AA969215BCCC
:102C7000968415AC969415BE968615AE969612005F
:102C8000EACF04F0E9CF05F0FF0EE3CFEAFFFE0E36
:102C9000E3CFE9FF98A741D0EECFA0F0EECFA1F0AF
:102CA000EECFA2F0EECFA3F0EECFA4F0EECFA5F0E2
:102CB000EECFA6F0EECFA7F0EECFA8F0EECFA9F0C2
:102CC000EECFAAF0EECFABF0EECFACF0EECFADF0A2
:102CD000EECFAEF0EECFAFF0EECFB0F0EECFB1F082
:102CE000EECFB2F0EECFB3F0EECFB4F0EECFB5F062
:102CF000EECFB6F0EECFB7F0EECFB8F0EECFB9F042
:102D0000EECFBAF0EECFBBF0EECFBCF0EECFBDF021
:102D1000EECFBEF0EECFBFF040D0EECF80F0EECFE2
:102D200081F0EECF82F0EECF83F0EECF84F0EECFE5
:102D300085F0EECF86F0EECF87F0EECF88F0EECFC5
:102D400089F0EECF8AF0EECF8BF0EECF8CF0EECFA5
:102D50008DF0EECF8EF0EECF8FF0EECF90F0EECF85
:102D600091F0EECF92F0EECF93F0EECF94F0EECF65
:102D700095F0EECF96F0EECF97F0EECF98F0EECF45
:102D800099F0EECF9AF0EECF9BF0EECF9CF0EECF25
:102D90009DF0EECF9EF0EECF9FF004C0EAFF05C09D
:102DA000E9FF120098A11200EACF04F0E9CF05F084
:102DB000FF0EE3CFEAFFFE0EE3CFE9FF98A941D073
:102DC000C0C0EEFFC1C0EEFFC2C0EEFFC3C0EEFF49
:102DD000C4C0EEFFC5C0EEFFC6C0EEFFC7C0EEFF29
:102DE000C8C0EEFFC9C0EEFFCAC0EEFFCBC0EEFF09
:102DF000CCC0EEFFCDC0EEFFCEC0EEFFCFC0EEFFE9
:102E0000D0C0EEFFD1C0EEFFD2C0EEFFD3C0EEFFC8
:102E1000D4C0EEFFD5C0EEFFD6C0EEFFD7C0EEFFA8
:102E2000D8C0EEFFD9C0EEFFDAC0EEFFDBC0EEFF88
:102E3000DCC0EEFFDDC0EEFFDEC0EEFFDFC0EEFF68
:102E400040D0E0C0EEFFE1C0EEFFE2C0EEFFE3C025
:102E5000EEFFE4C0EEFFE5C0EEFFE6C0EEFFE7C028
:102E6000EEFFE8C0EEFFE9C0EEFFEAC0EEFFEBC008
:102E7000EEFFECC0EEFFEDC0EEFFEEC0EEFFEFC0E8
:102E8000EEFFF0C0EEFFF1C0EEFFF2C0EEFFF3C0C8
:102E9000EEFFF4C0EEFFF5C0EEFFF6C0EEFFF7C0A8
:102EA000EEFFF8C0EEFFF9C0EEFFFAC0EEFFFBC088
:102EB000EEFFFCC0EEFFFDC0EEFFFEC0EEFFFFC068
:102EC000EEFF04C0EAFF05C0E9FF120016500F0A2A
:102ED000D8B41200FF0EE3CF0AF0FE0EE3CF0BF0E2
:102EE000FD0EE3CF0CF0FC0EE3CF0DF00A2A16A086
:102EF0008D8E0B2A16A28F800C2A16A48F860D2A7F
:102F000016A68F88FB0EE3CF0EF0FA0EE3CF0FF07C
:102F1000F90EE3CF10F0F80EE3CF11F00E2A8D80FA
:102F20000F2A8D82102A8D84112A8D86C7EC17F006
:102F30000A2E9DEF17F016A08D9E0B2EA2EF17F014
:102F400016A28F900C2EA7EF17F016A48F960000F4
:102F50000D2EADEF17F016A68F9800000E2EB2EFD3
:102F600017F08D9000000F2EB7EF17F08D92000034
:102F7000102EBCEF17F08D940000112EC1EF17F04A
:102F80008D96E9EC17F0133E98EF17F01200D70E6C
:102F9000136E0000000000000000DFEC17F0132E9D
:102FA000C9EF17F0D70E136E0000000000000000FC
:102FB000DFEC17F0132ED4EF17F000001200000022
:102FC000E2EF17F000000000000000000000000029
:102FD0001200030E146E0000142EEBEF17F0120017
:102FE0009EB802D0FDD7FCD71200D9CFE6FFE1CFC3
:102FF000D9FFFE0EDBCFE6FF06EC16F0E5520D0E14
:10300000AD6EEEDFE552E7CFD9FF1200D9CFE6FF74
:10301000E1CFD9FF0701D950FD0F506FFF0EDA2025
:10302000516F010E0701EA6A5025E96E5151EA22FB
:10303000EF50E66E06EC16F0E55250C7E9FF51C7B7
:10304000EAFFEF50E66E06EC16F0E5520D0EAD6E9F
:10305000C7DFE552E7CFD9FF1200D9CFE6FFE1CFB6
:10306000D9FFFD0EDBCF2BF0FE0EDBCF2CF02D6A4F
:103070002BC0E6FF2CC0E6FF2DC0E6FF000EE66E7B
:10308000070EE66E25EC1BF0F56E050EE15EF550C1
:10309000000EE66E070EE66E3EEC1BF0E552E552C2
:1030A000F3CF54F7F4CF55F707015551000AE8AEB6
:1030B00002D0553505D0500ED8805455000E5555C8
:1030C00004E2500E0701546F556B0701566B576BA6
:1030D0000701575107015519E8AE02D0553507D001
:1030E00054510701565D070155510701575910E228
:1030F000000E07015625E96E070E07015721EA6EFB
:10310000EF50AD6E6DDF0701562B000E5723E0D751
:10311000E552E7CFD9FF1200D9CFE6FFE1CFD9FFC3
:103120000701526B1A0E0701525D11E2FD0EDBCF53
:10313000E9FFDB2AFE0EDBCFEAFF01E3DB2AEF50DB
:10314000E66E06EC16F0E5520701522BEBD70D0E9A
:10315000AD6E46DFE552E7CFD9FF12000701780ECA
:10316000506F070E516F070178510701D56FD66B6D
:103170000701D7510701D51904E10701D85107010B
:10318000D61919E0070198A503D0070198950FD02B
:10319000D7C7E6FF06EC16F0E552D5C7E6FF06EC0A
:1031A00016F0E5520D0EAD6E1BDF07019895D5C7E1
:1031B000D7F7D6C7D8F70701D72B000ED8230701BA
:1031C000D851000AE8AE02D0D83505D0FF0ED8801D
:1031D000D755000ED85503E20701D76BD86B120004
:1031E000150EE66E3C0EE66E95EC1AF0E552E552D1
:1031F000320EE66E91EC1BF0E5521200D9CFE6FFDD
:10320000E1CFD9FFFE0EDBCF53F7E552E7CFD9FF71
:103210001200D9CFE6FFE1CFD9FF020EE126FE0E64
:10322000DB507F0BFE0BFD0BE66E53C7E6FFC7ECD2
:103230001AF0E552E5520A0EE66EB0EC1BF0E552CC
:10324000BEEC1BF007EC04F0000901E0FBD74CECEE
:103250001BF0BBEC1BF0C4502D6E2DC02EF02D6A60
:10326000C35000012D102B6F2EC02CF02BC0DEFFA1
:103270002CC0DDFFDECF2BF0DDCF2CF02BC0F3FF19
:103280002CC0F4FF00D0D9CFE1FFE552E7CFD9FF42
:0232900012002A
:0E329200D8CFE4FFE0CFE4FFE46EDACFE4FF34
:1032A000E2CFDAFFF3CFE4FFF4CFE4FFE652D9CF69
:1032B000E6FFE1CFD9FFE652F050020B05E0F050F7
:1032C000100B02E0F09211D0F050040B05E0F0502A
:1032D000200B02E0F09409D0F250010B06E0F2500E
:1032E000080B03E08150DF6EF290E552E552E7CF24
:1032F000D9FFE552E5CFF4FFE5CFF3FFE5CFDAFFE5
:10330000E550E5CFE0FFE5CFD8FF100007017F0EC5
:103310005F6F5FC75EF75FC75DF75FC75CF7070169
:103320007F0E636F63C762F763C761F763C760F7B8
:1033300007017F0E676F67C766F767C765F767C7DF
:1033400064F7070179AD14D0070198A110D0780E69
:10335000E66E070EE66E5CEC13F0E552E552580E91
:10336000E66E070EE66E7EEC13F0E552E552E9D705
:043370001200120035
:0C337400286E756C6C2900253278203A18
:103380002025327820253278202532782025327881
:1033900020253278202532782020253278202532C9
:1033A0007820253278202532782025327820253261
:1033B000780A00253278203A202532782025327884
:1033C0002025327820253278202532782025327841
:1033D00020253278202532780A004175746F6E44BA
:1033E000656C61790A00666F72776172640A0052D7
:1033F000696768740A004C6566740A0053776974DB
:1034000068657320253034780A00564558202D20F1
:103410004D6173746572207625642C205573657236
:06342000207625640A007D
:0A3426001E0EF66E080EF76E000E83
:10343000F86E07010900F550D06F0900F550D16F03
:1034400003E1D06701D03DD00900F550CB6F0900F2
:10345000F550CC6F0900F550CD6F09000900F5500B
:10346000E96E0900F550EA6E090009000900F550FF
:10347000CE6F0900F550CF6F09000900F6CFD2F7E3
:10348000F7CFD3F7F8CFD4F7CBC7F6FFCCC7F7FF0A
:10349000CDC7F8FF0701CE5302E1CF5307E0090083
:1034A000F550EE6ECE07F8E2CF07F9D7D2C7F6FF98
:1034B000D3C7F7FFD4C7F8FF0701D007000ED15BD1
:0434C000BFD7120060
:0C34C400D9CFE6FFDACFE6FFE1CFD9FF59
:1034D000E2CFDAFF3F0EC716C66AFD0EDB50C612FA
:1034E000FB0EDB50C712FC0EDB50030A09E0010A99
:1034F00004E0020A06E1C78C04D0C78CC68801D05C
:10350000C688FD0EDB50050A03E0010A04E1928A39
:103510009486C79E01D09496949A9488C68AE55260
:0A352000E5CFDAFFE7CFD9FF120074
:06352A00D9CFE6FFDACF65
:10353000E6FFE1CFD9FFE2CFDAFFAC6AAB6AFD0E5E
:10354000DBB0AC88DBA202D0AC8CAB8CDBB4AC8E35
:10355000DBA602D0AB8801D0AB8ADBA802D0AC845A
:1035600001D0AC94DBAC02D09D8A01D09D9ADBAE39
:1035700002D09D8801D09D98FC0EDB50AF6EAC8AC6
:0E358000AB8EE552E5CFDAFFE7CFD9FF1200A0
:02358E00D9CF93
:10359000E6FFDACFE6FFE1CFD9FFE2CFDAFFC26A7A
:1035A000C16AC06AFC0EDB407F0B3C0BC26EFD0E95
:1035B000DB500F0B2B6EFC0EDB38F00B300B2B109F
:1035C000C16EFD0EDB380F0B070B2B6EFD0EDB50B3
:1035D000800B2B10C06EFC0EDBAE03D09E9C9D8C2E
:1035E000F28CC280E552E5CFDAFFE7CFD9FF1200B7
:1035F0001EC02AF01DC029F01D502202F4CF1CF07D
:10360000F3CF1BF01E502302F4CF1EF0F3CF1DF0BA
:103610002202F3501C26F4501D22E86A1E22295073
:103620002302F3501C26F4501D22E86A1E2223AE0A
:103630001EEF1BF029501D5E2A501E5A2AAE000CA8
:0A36400022501D5E23501E5A000C9C
:06364A00FB0EE3CFF6FFCA
:10365000FC0EE3CFF7FFFD0EE3CFF8FFFE0EE3CF46
:10366000E9FFFF0EE3CFEAFFE9CFF3FFEACFF4FF74
:103670000900F5CFEFFFEE66FBD71200FE0EE3CF99
:10368000E9FFFF0EE3CFEAFFF36AF46AEE5203E0CC
:08369000F34AF42AFBD71200F3
:08369800D9CFE6FFDACFE6FF0F
:1036A000E1CFD9FFE2CFDAFFE652E652C350DF6E38
:1036B000010EC4CFDBFFDECF2BF0DDCF2CF02BC013
:1036C000F3FF2CC0F4FFE552E552E552E5CFDAFFF7
:0636D000E7CFD9FF120054
:0A36D6001A6A196A100EE76ED89008
:1036E0001D361E3619361A362250195C23501A58C8
:1036F00005E32250195E23501A5A1D2AE72EF0D7EF
:023700001200B5
:0E37020016EE00F026EE00F0F86A269CA68E69
:10371000A69CF4EC15F013EC1AF0A1EC1BF0F9D711
:02372000120095
:0E372200FF0EE350316E480E01D04C0EE76EE4
:10373000E72EFED7E76AE72EFED7312EF7D7000037
:02374000120075
:0E374200B9EC12F02CEC0DF007019891070184
:1037500098A102D007EC0FF0B9EC19F0F8D71200DD
:10376000FF0EE350E84E1200000000D000D000D061
:06377000E82EFAD712005A
:06377600C2909D9C1200B0
:04377C00C2821200F3
:043780000000000045
:020000040030CA
:0E000000FFFEFEFCFFFEFBFFFFFFFFFFFFFF0A
:00000001FF
